:020000040800F2
:10000000000002209D960008F9890008098A00086E
:10001000118A0008198A0008218A000800000000DF
:10002000000000000000000000000000298A000815
:10003000398A000800000000498A0008598A00082F
:10004000ED960008ED960008ED960008ED96000884
:10005000ED960008ED960008ED960008ED96000874
:10006000ED960008ED960008ED960008ED96000864
:10007000ED960008ED960008ED960008ED96000854
:10008000ED960008ED960008ED960008ED96000844
:10009000ED960008ED960008ED960008ED96000834
:1000A000ED960008ED960008ED960008ED96000824
:1000B000ED960008ED960008ED960008ED96000814
:1000C000ED960008ED960008ED960008ED96000804
:1000D000ED960008ED960008ED960008ED960008F4
:1000E000ED960008ED960008ED960008ED960008E4
:1000F000ED960008ED960008ED960008ED960008D4
:10010000ED960008ED960008ED960008ED960008C3
:10011000ED960008ED960008ED960008ED960008B3
:10012000ED960008ED960008ED960008ED960008A3
:10013000ED9600080000000000000000ED960008A9
:10014000ED960008ED960008ED960008818A0008FB
:10015000ED960008ED960008ED960008ED96000873
:10016000ED960008ED960008ED960008ED96000863
:10017000ED960008ED960008000000000000000069
:08018000ED960008ED96000861
:1001900010B5054C237833B9044B13B10448AFF3C1
:1001A00000800123237010BD100A00200000000011
:1001B00000C90008084B10B51BB108490848AFF347
:1001C00000800848036803B910BD074B002BFBD023
:1001D000BDE81040184700BF00000000140A0020CE
:1001E00000C90008100A00200000000081F0004152
:1001F00002E000BF83F0004330B54FEA41044FEA0C
:10020000430594EA050F08BF90EA020F1FBF54EAA6
:10021000000C55EA020C7FEA645C7FEA655C00F042
:10022000E2804FEA5454D4EB5555B8BF6D420CDD13
:100230002C4480EA020281EA030382EA000083EA96
:10024000010180EA020281EA0303362D88BF30BD36
:1002500011F0004F4FEA01314FF4801C4CEA11318C
:1002600002D0404261EB410113F0004F4FEA0333EB
:100270004CEA133302D0524263EB430394EA050F76
:1002800000F0A780A4F10104D5F1200E0DDB02FAE5
:100290000EFC22FA05F2801841F1000103FA0EF279
:1002A000801843FA05F359410EE0A5F120050EF13F
:1002B000200E012A03FA0EFC28BF4CF0020C43FA70
:1002C00005F3C01851EBE37101F0004507D54FF07D
:1002D000000EDCF1000C7EEB00006EEB0101B1F5CD
:1002E000801F1BD3B1F5001F0CD349085FEA300013
:1002F0004FEA3C0C04F101044FEA445212F5800F1E
:1003000080F09A80BCF1004F08BF5FEA500C50F1BA
:10031000000041EB045141EA050130BD5FEA4C0C9D
:10032000404141EB010111F4801FA4F10104E9D126
:1003300091F0000F04BF01460020B1FA81F308BF1D
:100340002033A3F10B03B3F120020CDA0C3208DDE9
:1003500002F1140CC2F10C0201FA0CF021FA02F1C4
:100360000CE002F11402D8BFC2F1200C01FA02F134
:1003700020FA0CFCDCBF41EA0C019040E41AA2BF59
:1003800001EB0451294330BD6FEA04041F3C1CDA21
:100390000C340EDC04F11404C4F1200220FA04F041
:1003A00001FA02F340EA030021FA04F345EA0301EB
:1003B00030BDC4F10C04C4F1200220FA02F001FAAD
:1003C00004F340EA0300294630BD21FA04F029462F
:1003D00030BD94F0000F83F4801306BF81F48011C8
:1003E0000134013D4EE77FEA645C18BF7FEA655C3B
:1003F00029D094EA050F08BF90EA020F05D054EA0D
:10040000000C04BF1946104630BD91EA030F1EBF11
:100410000021002030BD5FEA545C05D14000494115
:1004200028BF41F0004130BD14F580043CBF01F508
:10043000801130BD01F0004545F0FE4141F47001EE
:100440004FF0000030BD7FEA645C1ABF19461046C9
:100450007FEA655C1CBF0B46024650EA013406BFCA
:1004600052EA033591EA030F41F4002130BD00BF89
:1004700090F0000F04BF0021704730B54FF4806446
:1004800004F132044FF000054FF0000150E700BFC7
:1004900090F0000F04BF0021704730B54FF4806426
:1004A00004F1320410F0004548BF40424FF0000113
:1004B0003EE700BF42004FEAE2014FEA31014FEA56
:1004C00002701FBF12F07F4393F07F4F81F06051A5
:1004D000704792F0000F14BF93F07F4F704730B514
:1004E0004FF4607401F0004521F0004120E700BFA7
:1004F00050EA010208BF704730B54FF000050AE02E
:1005000050EA010208BF704730B511F0004502D52E
:10051000404261EB41014FF4806404F132045FEA30
:10052000915C3FF4DCAE4FF003025FEADC0C18BFD5
:1005300003325FEADC0C18BF033202EBDC02C2F1CB
:10054000200300FA03FC20FA02F001FA03FE40EA5D
:100550000E0021FA02F11444C1E600BF70B54FF05D
:10056000FF0C4CF4E06C1CEA11541DBF1CEA13553F
:1005700094EA0C0F95EA0C0F00F0DEF82C4481EAA7
:10058000030621EA4C5123EA4C5350EA013518BFC7
:1005900052EA033541F4801143F4801338D0A0FBB4
:1005A00002CE4FF00005E1FB02E506F00042E0FB61
:1005B00003E54FF00006E1FB03569CF0000F18BF67
:1005C0004EF0010EA4F1FF04B6F5007F64F540740F
:1005D00004D25FEA4E0E6D4146EB060642EAC621A2
:1005E00041EA55514FEAC52040EA5E504FEACE2E0F
:1005F000B4F1FD0C88BFBCF5E06F1ED8BEF1004F12
:1006000008BF5FEA500E50F1000041EB045170BD8D
:1006100006F0004646EA010140EA020081EA0301D1
:10062000B4EB5C04C2BFD4EB0C0541EA045170BDCD
:1006300041F480114FF0000E013C00F3AB8014F147
:10064000360FDEBF002001F0004170BDC4F1000490
:10065000203C35DA0C341BDC04F11404C4F1200511
:1006600000FA05F320FA04F001FA05F240EA02006C
:1006700001F0004221F0004110EBD37021FA04F6A2
:1006800042EB06015EEA430E08BF20EAD37070BD5C
:10069000C4F10C04C4F1200500FA04F320FA05F0BB
:1006A00001FA04F240EA020001F0004110EBD370BD
:1006B00041F100015EEA430E08BF20EAD37070BD2D
:1006C000C4F1200500FA05F24EEA020E20FA04F306
:1006D00001FA05F243EA020321FA04F001F00041B5
:1006E00021FA04F220EA020000EBD3705EEA430E26
:1006F00008BF20EAD37070BD94F0000F0FD101F055
:100700000046400041EB010111F4801F08BF013C8D
:10071000F7D041EA060195F0000F18BF704703F0CB
:100720000046520043EB030313F4801F08BF013D52
:10073000F7D043EA0603704794EA0C0F0CEA13550E
:1007400018BF95EA0C0F0CD050EA410618BF52EAC8
:100750004306D1D181EA030101F000414FF00000CE
:1007600070BD50EA410606BF1046194652EA4306DC
:1007700019D094EA0C0F02D150EA013613D195EA50
:100780000C0F05D152EA03361CBF104619460AD198
:1007900081EA030101F0004141F0FE4141F47001A2
:1007A0004FF0000070BD41F0FE4141F4780170BD92
:1007B00070B54FF0FF0C4CF4E06C1CEA11541DBFF7
:1007C0001CEA135594EA0C0F95EA0C0F00F0A7F8F9
:1007D000A4EB050481EA030E52EA03354FEA013126
:1007E00000F088804FEA03334FF0805545EA131339
:1007F00043EA12634FEA022245EA111545EA106501
:100800004FEA00260EF000419D4208BF964244F197
:10081000FD0404F5407402D25B084FEA3202B61AB6
:1008200065EB03055B084FEA32024FF480104FF48A
:10083000002CB6EB020E75EB030E22BFB61A7546FE
:1008400040EA0C005B084FEA3202B6EB020E75EB91
:10085000030E22BFB61A754640EA5C005B084FEAF9
:100860003202B6EB020E75EB030E22BFB61A7546C6
:1008700040EA9C005B084FEA3202B6EB020E75EBD1
:10088000030E22BFB61A754640EADC0055EA060E92
:1008900018D04FEA051545EA16754FEA06164FEAD5
:1008A000C30343EA52734FEAC2025FEA1C1CC0D181
:1008B00011F4801F0BD141EA00014FF000004FF00E
:1008C000004CB6E711F4801F04BF01430020B4F1CF
:1008D000FD0C88BFBCF5E06F3FF6AFAEB5EB030C87
:1008E00004BFB6EB020C5FEA500C50F1000041EB84
:1008F000045170BD0EF0004E4EEA113114EB5C0451
:10090000C2BFD4EB0C0541EA045170BD41F4801123
:100910004FF0000E013C90E645EA060E8DE60CEA2B
:10092000135594EA0C0F08BF95EA0C0F3FF43BAF48
:1009300094EA0C0F0AD150EA01347FF434AF95EAFF
:100940000C0F7FF425AF104619462CE795EA0C0FE3
:1009500006D152EA03353FF4FDAE1046194622E7B0
:1009600050EA410618BF52EA43067FF4C5AE50EA8A
:1009700041047FF40DAF52EA43057FF4EBAE12E77A
:100980004FF0FF3C06E000BF4FF0010C02E000BF5B
:100990004FF0010C4DF804CD4FEA410C7FEA6C5C3E
:1009A0004FEA430C18BF7FEA6C5C1BD001B050EAE1
:1009B000410C0CBF52EA430C91EA030F02BF90EACC
:1009C000020F0020704710F1000F91EA030F58BF8B
:1009D000994208BF90422CBFD8176FEAE37040F0ED
:1009E000010070474FEA410C7FEA6C5C02D150EA8B
:1009F000013C07D14FEA430C7FEA6C5CD6D152EA46
:100A0000033CD3D05DF8040B704700BF844610460A
:100A100062468C461946634600E000BF01B5FFF709
:100A2000B7FF002848BF10F1000F01BD4DF808EDD9
:100A3000FFF7F4FF0CBF012000205DF808FB00BFAA
:100A40004DF808EDFFF7EAFF34BF012000205DF804
:100A500008FB00BF4DF808EDFFF7E0FF94BF012051
:100A600000205DF808FB00BF4DF808EDFFF7CEFF52
:100A700094BF012000205DF808FB00BF4DF808ED91
:100A8000FFF7C4FF34BF012000205DF808FB00BF62
:100A90004FEA410C7FEA6C5C02D150EA013C0AD17A
:100AA0004FEA430C7FEA6C5C02D152EA033C02D16C
:100AB0004FF0000070474FF0010070474FEA4102CD
:100AC000B2F1E04324BFB3F5001CDCF1FE5C0DD9AC
:100AD00001F0004C4FEAC0024CEA5070B2F1004FF6
:100AE00040EB830008BF20F00100704711F0804FF9
:100AF00021D113F13872BCBF01F00040704741F4BE
:100B000080114FEA5252C2F11802C2F1200C10FAC1
:100B10000CF320FA02F018BF40F001004FEAC123A5
:100B20004FEAD32303FA0CFC40EA0C0023FA02F349
:100B30004FEA4303CCE77FEA625307D150EA01331F
:100B40001EBF4FF0FE4040F44000704701F00040EF
:100B500040F0FE4040F40000704700BF80F00040CD
:100B600002E000BF81F0004142001FBF5FEA410385
:100B700092EA030F7FEA226C7FEA236C6AD04FEA85
:100B80001262D2EB1363C1BFD218414048404140CA
:100B9000B8BF5B42192B88BF704710F0004F40F47C
:100BA000000020F07F4018BF404211F0004F41F498
:100BB000000121F07F4118BF494292EA030F3FD064
:100BC000A2F1010241FA03FC10EB0C00C3F1200377
:100BD00001FA03F100F0004302D5494260EB400006
:100BE000B0F5000F13D3B0F1807F06D340084FEA71
:100BF000310102F10102FE2A51D2B1F1004F40EB66
:100C0000C25008BF20F0010040EA030070474900CD
:100C100040EB000010F4000FA2F10102EDD1B0FA98
:100C200080FCACF1080CB2EB0C0200FA0CF0AABF8D
:100C300000EBC25052421843BCBFD040184370472B
:100C400092F0000F81F4000106BF80F40000013231
:100C5000013BB5E74FEA41037FEA226C18BF7FEA08
:100C6000236C21D092EA030F04D092F0000F08BF4A
:100C70000846704790EA010F1CBF0020704712F031
:100C80007F4F04D1400028BF40F00040704712F170
:100C900000723CBF00F50000704700F0004343F0D5
:100CA000FE4040F4000070477FEA226216BF08460B
:100CB0007FEA23630146420206BF5FEA412390EACE
:100CC000010F40F4800070474FF0000304E000BFC4
:100CD00010F0004348BF40425FEA000C08BF704775
:100CE00043F0964301464FF000001CE050EA010239
:100CF00008BF70474FF000030AE000BF50EA01024E
:100D000008BF704711F0004302D5404261EB41013A
:100D10005FEA010C02BF84460146002043F0B6435F
:100D200008BFA3F18053A3F50003BCFA8CF2083A84
:100D3000A3EBC25310DB01FA02FC634400FA02FC8D
:100D4000C2F12002BCF1004F20FA02F243EB020094
:100D500008BF20F00100704702F1200201FA02FCF6
:100D6000C2F1200250EA4C0021FA02F243EB0200E9
:100D700008BF20EADC70704753B94AB9002908BFA0
:100D800000281CBF4FF0FF314FF0FF3000F07EB95C
:100D9000ADF1080C6DE904CE00F006F8DDF804E0D2
:100DA000DDE9022304B070472DE9F0478C460E467A
:100DB0000446089D002B50D18A4217466CD9B2FADE
:100DC00082FEBEF1000F0BD0CEF1200420FA04F415
:100DD00001FA0EF644EA060C02FA0EF700FA0EF4D7
:100DE0004FEA1749220CBCFBF9F01FFA87F809FB00
:100DF00010C642EA064600FB08F3B34209D9F619C9
:100E000000F1FF3280F02281B34240F21F810238AC
:100E10003E44F61AA2B2B6FBF9F309FB136642EAA6
:100E2000064403FB08F8A04509D9E41903F1FF3291
:100E300080F00A81A04540F20781023B3C44C8EBA8
:100E4000040443EA00400021002D62D024FA0EF48D
:100E500000232C606B60BDE8F0878B4207D9002D22
:100E600055D0002185E841000846BDE8F087B3FA77
:100E700083F1002940F09080B34202D3824200F215
:100E8000F880841A66EB03060120B446002D40D09A
:100E900085E81010BDE8F08712B90127B7FBF2F71B
:100EA000B7FA87FEBEF1000F35D1F31B4FEA1748A2
:100EB0001FFA87FC0121B3FBF8F0220C08FB103667
:100EC00042EA06460CFB00F3B34207D9F61900F1DB
:100ED000FF3202D2B34200F2CE801046F61AA2B21E
:100EE000B6FBF8F308FB136642EA06440CFB03FC6E
:100EF000A44507D9E41903F1FF3202D2A44500F258
:100F0000B5801346CCEB040443EA00409CE7294635
:100F10002846BDE8F087CEF1200106FA0EF307FA65
:100F20000EF720FA01F94FEA1748CE4049EA0309C3
:100F3000B6FBF8FA4FEA194408FB1A661FFA87FC59
:100F400044EA06430AFB0CF29A4200FA0EF40AD96C
:100F5000DB190AF1FF3180F087809A4240F28480E9
:100F6000AAF1020A3B449B1A1FFA89F9B3FBF8F174
:100F700008FB113349EA034301FB0CF69E4207D9F3
:100F8000DB1901F1FF326BD29E4269D902393B4431
:100F90009B1B41EA0A418EE7C1F1200E22FA0EF4B2
:100FA0008B40234320FA0EF706FA01F44FEA134C64
:100FB00026FA0EF63C43B6FBFCF9270C0CFB19662F
:100FC0001FFA83F847EA064609FB08F7B74202FA18
:100FD00001F200FA01FA08D9F61809F1FF3041D2FE
:100FE000B7423FD9A9F102091E44F61BA0B2B6FBD5
:100FF000FCF40CFB146640EA064704FB08F8B8450D
:1010000007D9FF1804F1FF3028D2B84526D9023C91
:101010001F4444EA0940C8EB0707A0FB02894F457B
:1010200044464E4614D329D065B3BAEB040367EBAC
:10103000060707FA0EFECB40CF404EEA030385E8D1
:1010400088000021BDE8F0871346F8E61046E0E688
:10105000B8EB020469EB03060138E5E70446D8E77C
:10106000114695E78146C0E78A467CE7023B3C444F
:1010700048E708460AE702383E442FE7C245E7D36F
:101080003E46D1E72946BDE8F08700BF704700BF64
:1010900010F8012B11F8013B012A28BF9A42F7D022
:1010A000D01A7047034613F8012B002AFBD1181AF7
:1010B0000138704700000000000000000000000040
:1010C00001F0FF01102A2BDB10F0070F08D010F8F9
:1010D000013B013A8B422DD010F0070F42B3F6D1FD
:1010E000F0B441EA012141EA014122F007047FF016
:1010F00000070023F0E80256083C85EA010586EA6D
:10110000010685FA47F5A3FA87F586FA47F6A5FAA8
:1011100087F68EB9EED1F0BC01F0FF0102F00702B4
:1011200032B110F8013B013A83EA010313B1F8D15F
:101130000020704701387047002D06BF3546033840
:10114000073815F0010F07D1013015F4807F02BF79
:10115000013015F4C03F0130F0BC0138704700BFCA
:101160004FEA410212F5001215D211D56FF47873CF
:10117000B3EB625212D94FEAC12343F0004343EA72
:10118000505311F0004F23FA02F018BF404270474D
:101190004FF00000704750EA013005D111F00040D7
:1011A00008BF6FF0004070474FF00000704700BF6D
:1011B00070B50F4E0F4D761BB61018BF002405D02A
:1011C000013455F8043B9847A642F9D10A4E0B4D1D
:1011D000761B0BF095FBB61018BF002406D0013427
:1011E00055F8043B9847A642F9D170BD70BD00BFC9
:1011F00088D0000888D0000890D0000888D0000867
:1012000070B4840746D0541E002A41D0CDB20346A4
:1012100002E0621EE4B3144603F8015B9A07F8D1BA
:10122000032C2ED9CDB245EA05250F2C45EA0545FC
:1012300019D903F110022646103E0F2E42F8105C19
:1012400042F80C5C42F8085C42F8045C02F11002BF
:10125000F2D8A4F1100222F00F0204F00F041032B1
:10126000032C13440DD91E462246043A032A46F89D
:10127000045BFAD8221F22F003020432134404F064
:1012800003042CB1C9B21C4403F8011BA342FBD1D7
:1012900070BC704714460346C2E700BF024B13B14F
:1012A000024800F005B8704700000000BD120008B9
:1012B000002301461A46184600F014B838B5074D09
:1012C000074C2C1BA41005D0013C55F8043D984751
:1012D000002CF9D1BDE838400BF018BB94D00008C1
:1012E00090D000082DE9F047254C2568D5F84841F5
:1012F0000646884692469946C4B360681F2817DCA4
:10130000431C76B104EB80050122C5F888A0D4F80F
:10131000881182401143022EC4F88811C5F8089143
:101320001ED00230636044F820800020BDE8F087C2
:10133000144B03B34FF4C87008F0F6FA0446D0B16A
:10134000D5F84831002780E88800C5F8484138467C
:101350000123C4F88871C4F88C71002EE1D0D1E764
:10136000D4F88C110A43C4F88C21DAE705F5A67489
:10137000C5F84841C1E74FF0FF30BDE8F08700BF36
:10138000FCCD00082999000880B500AF0E4A0E4B2D
:101390001B6843F4007313600B4A0B4B1B6843F448
:1013A00080631360084A084B1B6843F48073136022
:1013B000032000F029F9002000F008F807F026FAD1
:1013C0000023184680BD00BF003C024080B582B0BB
:1013D00000AF7860094B1B68094AA2FB03239B09F5
:1013E000184600F047F9002279684FF0FF3000F00E
:1013F00017F9002318460837BD4680BD6C0500204C
:10140000D34D621080B400AF044B1B680133034A14
:10141000136000BFBD465DF8047B7047F00A0020F2
:1014200080B400AF034B1B681846BD465DF8047BD3
:10143000704700BFF00A002080B584B000AF78602C
:10144000FFF7EEFFB8607B68FB60FB68B3F1FF3F1E
:1014500002D0FB680133FB6000BFFFF7E1FF0246EB
:10146000BB68D21AFB689A42F7D300BF1037BD465B
:1014700080BD00BF80B485B000AF78607B6803F0AA
:101480000703FB600C4BDB68BB60BA684FF6FF03D9
:101490001340BB60FB681A02BB68134343F0BF6391
:1014A00043F40033BB60044ABB68D36000BF143709
:1014B000BD465DF8047B704700ED00E080B400AFEE
:1014C000044BDB6803F4E0631B0A1846BD465DF875
:1014D000047B704700ED00E080B483B000AF0346AA
:1014E000FB71094997F907305B09FA7902F01F028D
:1014F000012000FA02F241F8232000BF0C37BD465C
:101500005DF8047B704700BF00E100E080B483B069
:1015100000AF03463960FB7197F90730002B0BDAF7
:101520000D49FB7903F00F03043B3A68D2B2120174
:10153000D2B20B441A7609E0084997F907303A68A5
:10154000D2B21201D2B20B4483F8002300BF0C3791
:10155000BD465DF8047B704700ED00E000E100E06F
:1015600080B489B000AFF860B9607A60FB6803F0BE
:101570000703FB61FB69C3F10703042B28BF0423A6
:10158000BB61FB690433062B02D9FB69033B00E016
:1015900000237B610122BB6902FA03F35A1EBB6878
:1015A0001A407B699A4001217B6901FA03F3591EB5
:1015B0007B680B40134318462437BD465DF8047B17
:1015C000704700BF80B582B000AF78607B68013B98
:1015D000B3F1807F01D301230FE00A4A7B68013B0E
:1015E00053600F214FF0FF30FFF790FF054B0022B3
:1015F0009A60044B07221A60002318460837BD463C
:1016000080BD00BF10E000E080B582B000AF786020
:101610007868FFF72FFF00BF0837BD4680BD00BFC9
:1016200080B586B000AF0346B9607A60FB730023D3
:101630007B61FFF743FF78617A68B9687869FFF7E3
:101640008FFF024697F90F3011461846FFF75EFFED
:1016500000BF1837BD4680BD80B582B000AF0346DD
:10166000FB7197F907301846FFF736FF00BF0837C0
:10167000BD4680BD80B582B000AF78607868FFF766
:10168000A1FF034618460837BD4680BD80B483B02D
:1016900000AF78607B68042B06D1094A084B1B68B1
:1016A00043F00403136005E0054A054B1B6823F073
:1016B0000403136000BF0C37BD465DF8047B704720
:1016C00010E000E080B500AF00F002F800BF80BD80
:1016D00080B400AF00BFBD465DF8047B704700BF1B
:1016E00080B489B000AF7860396000237B6100234B
:1016F0003B610023BB610023FB616BE10122FB69BD
:1017000002FA03F37B613B681A687B6913403B6113
:101710003A697B699A4240F05A813B685B68022BC8
:1017200003D03B685B68122B23D1FB69DA087B6826
:10173000083253F82230BB61FB6903F007039B00BA
:101740000F2202FA03F3DB43BA691340BB613B6823
:101750001A69FB6903F007039B0002FA03F3BA69F5
:101760001343BB61FB69DA087B680832B96943F847
:1017700022107B681B68BB61FB695B00032202FAD5
:1017800003F3DB43BA691340BB613B685B6803F05A
:101790000302FB695B0002FA03F3BA691343BB61FE
:1017A0007B68BA691A603B685B68012B0BD03B68A9
:1017B0005B68022B07D03B685B68112B03D03B684A
:1017C0005B68122B30D17B689B68BB61FB695B0057
:1017D000032202FA03F3DB43BA691340BB613B689F
:1017E000DA68FB695B0002FA03F3BA691343BB6171
:1017F0007B68BA699A607B685B68BB610122FB69A0
:1018000002FA03F3DB43BA691340BB613B685B68D0
:101810001B0903F00102FB6902FA03F3BA691343DF
:10182000BB617B68BA695A607B68DB68BB61FB6936
:101830005B00032202FA03F3DB43BA691340BB6186
:101840003B689A68FB695B0002FA03F3BA691343C9
:10185000BB617B68BA69DA603B685B6803F0805300
:10186000002B00F0B4800023FB605F4A5E4B5B6C92
:1018700043F4804353645C4B5B6C03F48043FB6034
:10188000FB685A4AFB699B08023352F82330BB615C
:10189000FB6903F003039B000F2202FA03F3DB430F
:1018A000BA691340BB617B68514A93422BD07B6875
:1018B000504A934225D07B684F4A93421FD07B68A1
:1018C0004E4A934219D07B684D4A934213D07B68AD
:1018D0004C4A93420DD07B684B4A934207D07B68B9
:1018E0004A4A934201D107230EE008230CE0062365
:1018F0000AE0052308E0042306E0032304E00223B2
:1019000002E0012300E00023FA6902F003029200E2
:101910009340BA691343BB613449FB699B080233A6
:10192000BA6941F823203A4B1B68BB613B69DB4332
:10193000BA691340BB613B685B6803F48033002BDA
:1019400003D0BA693B691343BB61314ABB69136079
:101950002F4B5B68BB613B69DB43BA691340BB61DA
:101960003B685B6803F40033002B03D0BA693B6922
:101970001343BB61264ABB695360254B9B68BB611F
:101980003B69DB43BA691340BB613B685B6803F4A6
:101990008013002B03D0BA693B691343BB611C4A17
:1019A000BB6993601A4BDB68BB613B69DB43BA6977
:1019B0001340BB613B685B6803F40013002B03D04A
:1019C000BA693B691343BB61114ABB69D360FB69C8
:1019D0000133FB61FB690F2B7FF690AE00BF24370C
:1019E000BD465DF8047B7047003802400038014076
:1019F000000002400004024000080240000C0240C7
:101A0000001002400014024000180240001C024076
:101A1000003C014080B487B000AF7860396000239B
:101A20003B610023FB600023BB6000237B61CEE0B1
:101A300001227B6902FA03F33B613A683B69134078
:101A4000FB60FA683B699A4240F0BE807B681A6886
:101A50007B695B00032101FA03F3DB431A407B68D7
:101A60001A607B69DA087B69D9087B68083153F80A
:101A700021107B6903F007039B000F2000FA03F39A
:101A8000DB4319407B68083243F822107B689A6870
:101A90007B695B00032101FA03F3DB431A407B6897
:101AA0009A607B685A6801217B6901FA03F3DB4382
:101AB0001A407B685A607B68DA687B695B000321A7
:101AC00001FA03F3DB431A407B68DA60454A7B691D
:101AD0009B08023352F82330BB607B6903F0030399
:101AE0009B000F2202FA03F3BA681340BB607B68C5
:101AF0003D4A93422BD07B683C4A934225D07B6879
:101B00003B4A93421FD07B683A4A934219D07B6884
:101B1000394A934213D07B68384A93420DD07B6890
:101B2000374A934207D07B68364A934201D1072354
:101B30000EE008230CE006230AE0052308E0042356
:101B400006E0032304E0022302E0012300E0002377
:101B50007A6902F00302920003FA02F2BB689A4229
:101B600032D17B6903F003039B000F2202FA03F3D7
:101B7000BB601C487B699B081A497A69920802324B
:101B800051F82210BA68D2430A40023340F82320A9
:101B90001D491D4B1A68FB68DB4313400B601A4953
:101BA000194B5A68FB68DB4313404B601649164BD0
:101BB0009A68FB68DB4313408B601349124BDA6869
:101BC000FB68DB431340CB607B6901337B617B693E
:101BD0000F2B7FF62DAF00BF1C37BD465DF8047B91
:101BE000704700BF0038014000000240000402407E
:101BF00000080240000C02400010024000140240A5
:101C000000180240001C0240003C014080B485B036
:101C100000AF78600B467B807B681A697B88134035
:101C2000002B02D00123FB7301E00023FB73FB7B3D
:101C300018461437BD465DF8047B704780B483B006
:101C400000AF78600B467B8013467B707B78002B5F
:101C500003D07A887B689A6103E07B881A047B68EA
:101C60009A6100BF0C37BD465DF8047B704700BF2A
:101C7000F0B58FB00AAF78600023FB607B68002B63
:101C800001D10123F7E07B68032283F8B923786848
:101C900007F0D0F87B681B68184602F06BFB7B6886
:101CA0001B683B607E686D4606F110040FCC0FC5C3
:101CB0000FCC0FC594E8030085E80300331D0ECB5D
:101CC000386802F0F3FA7B681B680021184602F0BE
:101CD00063FB0023FB604CE07968FA681346DB0085
:101CE0009B1A9B000B44393301221A70FB68D8B24F
:101CF0007968FA681346DB009B1A9B000B44383363
:101D000002461A70FB6898B27968FA681346DB00DD
:101D10009B1A9B000B443E3302461A807968FA688E
:101D20001346DB009B1A9B000B443B3300221A70C6
:101D30007968FA681346DB009B1A9B000B4440331A
:101D400000221A607968FA681346DB009B1A9B0030
:101D50000B44443300221A607968FA681346DB00AA
:101D60009B1A9B000B444C3300221A60FB68013322
:101D7000FB60FB680E2BAFD90023FB605AE079684B
:101D8000FA681346DB009B1A9B000B4403F2F9131D
:101D900000221A70FB68D8B27968FA681346DB0033
:101DA0009B1A9B000B4403F5FC7302461A70FB68F8
:101DB00098B27968FA681346DB009B1A9B000B44C3
:101DC0003E3302461A807968FA681346DB009B1A94
:101DD0009B000B4403F2FB1300221A707968FA6827
:101DE0001346DB009B1A9B000B4403F50073002293
:101DF0001A607968FA681346DB009B1A9B000B4453
:101E000003F5017300221A607968FA681346DB0053
:101E10009B1A9B000B4403F5037300221A607B6836
:101E20001A68FB6840339B00134400225A60FB6829
:101E30000133FB60FB680E2BA1D97B681B683B60FC
:101E40007E686D4606F110040FCC0FC50FCC0FC590
:101E500094E8030085E80300331D0ECB386802F0D8
:101E6000C3FA7B68012283F8B9237B681B68184694
:101E700003F0E4FA002318461437BD46F0BD00BF56
:101E800080B582B000AF78607B6893F8B833012BDF
:101E900001D1022312E07B68012283F8B8237B681A
:101EA0001B68184603F0B2FA7B681B68184602F0FC
:101EB0004FFA7B68002283F8B823002318460837BE
:101EC000BD4680BD80B58CB000AF78607B681B6874
:101ED0003B620023FB620023BB620023FB61002303
:101EE0007B620023BB6100237B617B4B3B617B6892
:101EF0001B68184603F046FB0346002B40F05D8448
:101F00007B681B68184603F0B1FA0346002B00F00B
:101F100053847B681B68184603F0A8FA034603F055
:101F20000203002B07D07B681B687A68126852692D
:101F300002F002025A617B681B68184603F096FAA9
:101F4000034603F40023002B00F0B28000237B62E1
:101F50007B681B68184603F09FFAB862A4E0BB6A6E
:101F600003F00103002B00F099807B681B687A6AFC
:101F7000D2B21146184603F0BFFAF861FB6903F0CC
:101F80000103002B6BD07B6A5A013B6A134403F5B3
:101F900030631A46012393607B681B69012B3CD197
:101FA00079687A6A1346DB009B1A9B000B4403F5A1
:101FB00000731A687B6A59013B6A0B4403F530636E
:101FC0001B69C3F31203D11A78687A6A1346DB00DF
:101FD0009B1A9B00034403F50473196079687A6ABD
:101FE0001346DB009B1A9B000B4403F50173196831
:101FF00078687A6A1346DB009B1A9B00034403F55A
:1020000000731B68194478687A6A1346DB009B1AD0
:102010009B00034403F5017319607B6ADBB2194628
:10202000786806F083FF7B681B69012B17D17B6AF8
:10203000002B14D179687A6A1346DB009B1A9B0047
:102040000B4403F503731B68002B08D17B681868E9
:102050007B6803F56F731A46012103F0D7FAFB6919
:1020600003F00803002B0BD0786806F04DFF7B6A65
:102070005A013B6A134403F530631A460823936000
:10208000FB6903F01003002B08D07B6A5A013B6AFE
:10209000134403F530631A46102393607B6A0133BF
:1020A0007B62BB6A5B08BB62BB6A002B7FF457AFE5
:1020B0007B681B68184603F0D9F9034603F48023B4
:1020C000002B00F0C5807B681B68184603F0FCF904
:1020D000B86200237B62B7E00095BA0ABB6A03F0DE
:1020E0000103002B00F0AA807B681B687A6AD2B2D9
:1020F0001146184603F01CFAF861FB6903F001036E
:10210000002B5AD001227B6A02FA03F3BB613B6ABF
:1021100003F5006319463B6A03F500635A6BBB691C
:10212000DB4313404B637B6A5A013B6A134403F55C
:1021300010631A46012393607B681B69012B1BD136
:1021400079687A6A1346DB009B1A9B000B44443380
:10215000196878687A6A1346DB009B1A9B0003446F
:1021600040331B68194478687A6A1346DB009B1A6F
:102170009B000344443319607B6ADBB219467868DC
:1021800006F0F0FE7B681B69012B16D17B6A002BE1
:1021900013D179687A6A1346DB009B1A9B000B44C3
:1021A0004C331B68002B08D17B6818687B6803F5EB
:1021B0006F731A46012103F029FAFB6903F0080343
:1021C000002B08D07B6A5A013B6A134403F5106365
:1021D0001A4608239360FB6903F01003002B08D014
:1021E0007B6A5A013B6A134403F510631A461023B5
:1021F0009360FB6903F04003002B08D07B6A5A010F
:102200003B6A134403F510631A4640239360FB694D
:1022100003F00203002B08D07B6A5A013B6A134487
:1022200003F510631A4602239360FB6903F08003F1
:10223000002B03D0796A786800F0ECFC7B6A0133EC
:102240007B62BB6A5B08BB62BB6A002B7FF446AF54
:102250007B681B68184603F009F90346002B15DA62
:102260003B6A03F500631A463B6A03F500635B684B
:1022700023F001035360786806F0ECFE7B681B686E
:102280007A681268526902F000425A617B681B68E2
:10229000184603F0EBF8034603F40063002B12D05A
:1022A0003B6A03F500639B6803F00103002B02D037
:1022B000786806F0A7FE7B681B687A681268526926
:1022C00002F400625A617B681B68184603F0CEF87E
:1022D000034603F48053002B00F091803B6A03F522
:1022E00000631A463B6A03F500635B6823F0010351
:1022F00053607B681B681021184602F0A1F9002387
:10230000FB6214E0FB6A5A013B6A134403F5106355
:102310001A46FF239360FB6A5A013B6A134403F594
:1023200030631A46FF239360FB6A0133FB627B68CC
:102330005A68FB6A9A42E5D83B6A03F500631A467D
:102340004FF0FF3393613B6A03F500631A463B6A23
:1023500003F50063DB6943F00113D3617B681B6BFA
:10236000002B18D03B6A03F500631A463B6A03F55D
:102370000063D3F8843043F00B03C2F884303B6A27
:1023800003F500631A463B6A03F500635B6C43F098
:102390000B03536415E03B6A03F500631A463B6A7E
:1023A00003F500635B6943F00B0353613B6A03F57C
:1023B00000631A463B6A03F500631B6943F00B0395
:1023C00013613B6A03F500631A463B6A03F5006339
:1023D0001B6823F4FE6313607B6818687B681B69C5
:1023E000D9B27B6803F56F731A4603F00FF97B6867
:1023F0001B687A681268526902F480525A617B68DD
:102400001B68184603F032F8034603F40053002B10
:1024100000F0DA807B681B68184603F0C1F87B681F
:102420001B687A681268D26822F47052DA607B689E
:102430001B68184602F064F90346002B0FD17B6835
:102440000022DA607B684FF400725A617B681B6877
:102450007A681268D26842F41052DA60A9E07B68A8
:102460000322DA607B6840225A6101F09DF83861EE
:102470003B697B4A93420CD93B697A4A934208D81C
:102480007B681B687A681268D26842F47052DA601E
:102490008FE03B69734A93420CD93B69724A93427D
:1024A00008D87B681B687A681268D26842F4605268
:1024B000DA607EE03B696C4A93420CD93B696B4A17
:1024C000934208D87B681B687A681268D26842F425
:1024D0005052DA606DE03B69644A93420CD93B6923
:1024E000634A934208D87B681B687A681268D2688E
:1024F00042F44052DA605CE03B695D4A93420CD999
:102500003B695C4A934208D87B681B687A6812680A
:10251000D26842F43052DA604BE03B69554A93424C
:102520000CD93B69544A934208D87B681B687A6887
:102530001268D26842F42052DA603AE03B694E4AAF
:1025400093420CD93B694D4A934208D87B681B687B
:102550007A681268D26842F41052DA6029E03B6966
:10256000464A93420CD93B69454A934208D87B6856
:102570001B687A681268D26842F40052DA6018E088
:102580003B693F4A93420CD93B693E4A934208D883
:102590007B681B687A681268D26842F4E052DA609D
:1025A00007E07B681B687A681268D26842F4C05200
:1025B000DA60786806F0FEFC7B681B687A6812684F
:1025C000526902F400525A617B681B68184602F097
:1025D0004DFF034603F01003002B74D07B681B688B
:1025E0007A681268926922F010029A613B6A1B6A4B
:1025F0007B617B6903F00F021346DB009B1A9B0093
:1026000003F5FC737A681344FB607B695B0C03F091
:102610000F03022B38D17A6947F6F0731340002B71
:1026200049D0FB68D9687B691B099BB2C3F30A03D5
:102630009BB21A46386A02F0BBFDFB68DA687B6918
:102640001B09C3F30A031A44FB68DA60FB689A6942
:102650007B691B09C3F30A031A44FB689A612AE0E9
:10266000BFACD800BFE1E400FF23F4007F73060194
:102670009F491A01FF2C31013FA44C01FF356E0127
:102680001FABA601FF47E8017B695B0C03F00F035A
:10269000062B10D17B6803F56F7308221946386A40
:1026A00002F086FDFB689A697B691B09C3F30A0384
:1026B0001A44FB689A617B681B687A6812689269A1
:1026C00042F010029A617B681B68184602F0CEFE49
:1026D000034603F00803002B0AD0786806F05CFC80
:1026E0007B681B687A681268526902F008025A61B6
:1026F0007B681B68184602F0B9FE034603F480139A
:10270000002B0DD07B6ADBB21946786806F0C2FC5C
:102710007B681B687A681268526902F480125A61F9
:102720007B681B68184602F0A1FE034603F4001301
:10273000002B0DD07B6ADBB21946786806F098FC56
:102740007B681B687A681268526902F400125A6149
:102750007B681B68184602F089FE034603F080433D
:10276000002B0AD0786806F0A7FC7B681B687A68A3
:102770001268526902F080425A617B681B681846F1
:1027800002F074FE034603F00403002B15D07B68AF
:102790001B685B687B617B6903F00403002B02D03C
:1027A000786806F097FC7B681B687A681268516845
:1027B0007A690A435A6000E000BF3037BD4680BDE9
:1027C00080B582B000AF78600B46FB707B6893F8F1
:1027D000B833012B01D102230FE07B68012283F87B
:1027E000B8237B681B68FA781146184602F0E8FDAA
:1027F0007B68002283F8B823002318460837BD46BB
:1028000080BD00BF80B584B000AF78600846114637
:102810001A460346FB700B463B801346BB700023F1
:10282000FB7297F90330002B0BDAFB7803F07F0281
:102830001346DB009B1A9B0038337A681344FB6015
:102840000BE0FB7803F07F021346DB009B1A9B0032
:1028500003F5FC737A681344FB60FB7803F07F0395
:10286000DAB2FB681A7097F90330DBB2DB09DBB22E
:102870001A46FB685A703A88FB689A60FB68BA7817
:10288000DA70FB685B78002B04D0FB681B789AB287
:10289000FB68DA80BB78022B02D1FB6800221A7138
:1028A0007B6893F8B833012B01D102230EE07B68DB
:1028B000012283F8B8237B681B68F968184601F089
:1028C00055FF7B68002283F8B823FB7A184610373F
:1028D000BD4680BD80B584B000AF78600B46FB700C
:1028E00097F90330002B0BDAFB7803F07F021346D5
:1028F000DB009B1A9B0038337A681344FB600BE0C3
:10290000FB7803F07F021346DB009B1A9B0003F564
:10291000FC737A681344FB60FB7803F07F03DAB240
:10292000FB681A7097F90330DBB2DB09DBB21A4699
:10293000FB685A707B6893F8B833012B01D10223EE
:102940000EE07B68012283F8B8237B681B68F96876
:10295000184601F095FF7B68002283F8B823002316
:1029600018461037BD4680BD80B586B000AFF86010
:102970007A603B600B46FB72FB7A03F07F021346E2
:10298000DB009B1A9B0003F5FC73FA6813447B6120
:102990007B697A68DA607B693A685A617B690022F0
:1029A0009A617B6900225A70FB7A03F07F03DAB2E6
:1029B0007B691A70FB681B69012B02D17A687B69FD
:1029C0001A61FB7A03F07F03002B09D1FB681868BA
:1029D000FB681B69DBB21A46796902F053FA08E01A
:1029E000FB681868FB681B69DBB21A46796902F05C
:1029F00007F8002318461837BD4680BD80B483B061
:102A000000AF78600B46FB70FB7803F00F0279682B
:102A10001346DB009B1A9B000B4403F504731B68F1
:102A20009BB218460C37BD465DF8047B704700BF6B
:102A300080B586B000AFF8607A603B600B46FB72F1
:102A4000FB7A03F07F021346DB009B1A9B003833AE
:102A5000FA6813447B617B697A68DA607B693A685B
:102A60005A617B6900229A617B6901225A70FB7A64
:102A700003F07F03DAB27B691A70FB681B69012BD4
:102A800002D17A687B691A61FB7A03F07F03002B1D
:102A900009D1FB681868FB681B69DBB21A467969C3
:102AA00002F0F0F908E0FB681868FB681B69DBB20C
:102AB0001A46796901F0A4FF002318461837BD466D
:102AC00080BD00BF80B584B000AF78600B46FB705E
:102AD00097F90330002B0BDAFB7803F07F021346E3
:102AE000DB009B1A9B0038337A681344FB6009E0D3
:102AF000FA781346DB009B1A9B0003F5FC737A6897
:102B00001344FB60FB6801229A70FB7803F07F039B
:102B1000DAB2FB681A7097F90330DBB2DB09DBB27B
:102B20001A46FB685A707B6893F8B833012B01D1C1
:102B300002231EE07B68012283F8B8237B681B68B0
:102B4000F968184602F05CFBFB7803F07F03002B6A
:102B50000AD17B6818687B681B69D9B27B6803F56A
:102B60006F731A4602F052FD7B68002283F8B82387
:102B7000002318461037BD4680BD00BF80B584B025
:102B800000AF78600B46FB7097F90330002B0BDA2F
:102B9000FB7803F07F021346DB009B1A9B0038335F
:102BA0007A681344FB6009E0FA781346DB009B1A4D
:102BB0009B0003F5FC737A681344FB60FB680022FA
:102BC0009A70FB7803F07F03DAB2FB681A7097F90A
:102BD0000330DBB2DB09DBB21A46FB685A707B6854
:102BE00093F8B833012B01D102230EE07B68012258
:102BF00083F8B8237B681B68F968184602F072FBFB
:102C00007B68002283F8B823002318461037BD469E
:102C100080BD00BF80B58AB002AF786039607B6844
:102C20001B687B610023FB6100233B613A6813460C
:102C3000DB009B1A9B0038337A681344FB60FB6807
:102C40005A69FB689B69D31AFB61FB689A68FB6948
:102C50009A4202D2FB689B68FB61FB6903339B08C5
:102C6000BB612BE0FB685A69FB689B69D31AFB6167
:102C7000FB689A68FB699A4202D2FB689B68FB6119
:102C8000FB6903339B08BB61FB68D9683B68DAB218
:102C9000FB6998B27B681B69DBB2009303467869D5
:102CA00002F050FAFB68DA68FB691A44FB68DA60E4
:102CB000FB689A69FB691A44FB689A613B685A0190
:102CC0007B69134403F510639B699AB2BB699A420E
:102CD00009D9FB689A69FB685B699A4203D2FB6871
:102CE0005B69002BBED1FB69002B10D101223B6830
:102CF00002FA03F33B617B6903F5006319467B69C4
:102D000003F500635A6B3B69DB4313404B630023BD
:102D100018462037BD4680BD80B485B000AF7860CE
:102D20000B46FB7013463B800023FB730023BB6004
:102D30007B681B685B6ABB60FB78002B07D17B68F4
:102D40001B683A881104BA680A439A6228E07B68D3
:102D50001B689B6A1B0CBA681344BB600023FB739F
:102D60000DE07B681A68FB7B40339B0013445B6873
:102D70001B0CBA681344BB60FB7B0133FB73FA7B0B
:102D8000FB78013B9A42ECDB7B681968FB78013BDE
:102D90003A881004BA68024340339B000B445A60DF
:102DA000002318461437BD465DF8047B704700BF0A
:102DB00080B483B000AF78600B467B807B681B6873
:102DC0007A885A62002318460C37BD465DF8047BAA
:102DD000704700BF80B58EB000AF786000237B6382
:102DE0007B681B6803F00103002B74D0A44B9B6825
:102DF00003F00C03042B0BD0A14B9B6803F00C03D6
:102E0000082B11D19E4B5B6803F48003002B0BD081
:102E10009B4B1B6803F40033002B5BD07B685B6823
:102E2000002B57D1012325E27B685B68B3F5803F17
:102E300006D1934A924B1B6843F4803313601DE024
:102E40007B685B68B3F5A02F0CD18D4A8C4B1B6857
:102E500043F4802313608A4A894B1B6843F4803310
:102E600013600BE0864A864B1B6823F480331360A3
:102E7000834A834B1B6823F4802313607B685B6861
:102E8000002B13D0FEF7CCFA786308E0FEF7C8FAFF
:102E900002467B6BD31A642B01D90323EAE1784BFA
:102EA0001B6803F40033002BF0D014E0FEF7B8FAEF
:102EB000786308E0FEF7B4FA02467B6BD31A642B02
:102EC00001D90323D6E16E4B1B6803F40033002BBA
:102ED000F0D100E000BF7B681B6803F00203002B09
:102EE00077D0674B9B6803F00C03002B0BD0644B2F
:102EF0009B6803F00C03082B26D1614B5B6803F43D
:102F00008003002B20D15E4B1B6803F00203002BD3
:102F100005D07B68DB68012B01D00123AAE158486A
:102F2000574B1B6823F0F8027B681969F8233B6252
:102F30003B6A93FAA3F3FB61FB69B3FA83F301FAEB
:102F400003F31343036044E07B68DB68002B2AD063
:102F50004C4B01221A60FEF763FA786308E0FEF733
:102F60005FFA02467B6BD31A022B01D9032381E15E
:102F7000434B1B6803F00203002BF0D04048404B4A
:102F80001B6823F0F8027B681969F823FB62FB6A6F
:102F900093FAA3F3BB61BB69B3FA83F301FA03F3BA
:102FA0001343036015E0374B00221A60FEF738FA2E
:102FB000786308E0FEF734FA02467B6BD31A022BE3
:102FC00001D9032356E12E4B1B6803F00203002BAB
:102FD000F0D17B681B6803F00803002B30D07B68BE
:102FE0005B69002B16D0284B01221A60FEF718FAF5
:102FF000786308E0FEF714FA02467B6BD31A022BC3
:1030000001D9032336E11E4B5B6F03F00203002B53
:10301000F0D015E01C4B00221A60FEF701FA78632D
:1030200008E0FEF7FDF902467B6BD31A022B01D9AB
:1030300003231FE1124B5B6F03F00203002BF0D15F
:103040007B681B6803F00403002B00F087800023DB
:10305000BB600B4A0A4B1B6C43F080531364084B54
:103060001B6C03F08053BB60BB68084A074B1B68AE
:1030700043F480731360FEF7D3F9786311E000BF67
:103080000038024000004742800E47420070004076
:10309000FEF7C6F902467B6BD31A022B01D9032334
:1030A000E8E0764B1B6803F48073002BF0D07B685C
:1030B0009B68012B06D1724A714B1B6F43F00103D1
:1030C00013671CE07B689B68052B0CD16C4A6C4B2A
:1030D0001B6F43F004031367694A694B1B6F43F08E
:1030E000010313670BE0664A654B1B6F23F0010376
:1030F0001367634A624B1B6F23F0040313677B68FB
:103100009B68002B15D0FEF78BF978630AE0FEF779
:1031100087F902467B6BD31A41F28832934201D978
:103120000323A7E0564B1B6F03F00203002BEED0E6
:1031300014E0FEF775F978630AE0FEF771F90246CC
:103140007B6BD31A41F28832934201D9032391E079
:103150004B4B1B6F03F00203002BEED17B689B6986
:10316000002B00F08680464B9B6803F00C03082B75
:103170007DD07B689B69022B62D1424B00221A6092
:10318000FEF74EF9786308E0FEF74AF902467B6BDA
:10319000D31A022B01D903236CE0394B1B6803F0CF
:1031A0000073002BF0D136487B68DA697B681B6AB4
:1031B0001A437B68596A47F6C073BB62BB6A93FACD
:1031C000A3F3FB60FB68B3FA83F301FA03F31A433A
:1031D0007B689B6A5B08591E4FF440337B627B6AB5
:1031E00093FAA3F33B613B69B3FA83F301FA03F368
:1031F0001A437B68D96A4FF070633B633B6B93FA69
:10320000A3F37B617B69B3FA83F301FA03F31343FE
:1032100043601C4B01221A60FEF702F9786308E054
:10322000FEF7FEF802467B6BD31A022B01D903236B
:1032300020E0134B1B6803F00073002BF0D018E064
:10324000104B00221A60FEF7EBF8786308E0FEF7F7
:10325000E7F802467B6BD31A022B01D9032309E05E
:10326000074B1B6803F00073002BF0D101E0012332
:1032700000E0002318463837BD4680BD007000408E
:10328000003802406000474280B586B000AF7860E9
:10329000396000237B61814B1B6803F00F023B68A0
:1032A0009A420CD27D4B3A68D2B21A707B4B1B68A3
:1032B00003F00F023B689A4201D00123EAE07B68E9
:1032C0001B6803F00203002B08D07549744B9B6800
:1032D00023F0F0027B689B6813438B607B681B685C
:1032E00003F00103002B00F086807B685B68012BF4
:1032F00007D16B4B1B6803F40033002B19D101235A
:10330000C8E07B685B68022B03D07B685B68032B9B
:1033100007D1634B1B6803F00073002B09D1012315
:10332000B8E05F4B1B6803F00203002B01D10123BF
:10333000B0E05B495A4B9B6823F003027B685B68F3
:1033400013438B60FEF76CF878617B685B68012B38
:1033500012D10AE0FEF764F802467B69D31A41F203
:103360008832934201D9032394E04D4B9B6803F0CC
:103370000C03042BEED13EE07B685B68022B12D17C
:103380000AE0FEF74DF802467B69D31A41F2883213
:10339000934201D903237DE0414B9B6803F00C036A
:1033A000082BEED127E07B685B68032B1DD10AE078
:1033B000FEF736F802467B69D31A41F2883293420F
:1033C00001D9032366E0364B9B6803F00C030C2BFA
:1033D000EED110E0FEF724F802467B69D31A41F2E1
:1033E0008832934201D9032354E02D4B9B6803F0AC
:1033F0000C03002BEED1294B1B6803F00F023B6836
:103400009A420CD9254B3A68D2B21A70234B1B68EA
:1034100003F00F023B689A4201D001233AE07B6837
:103420001B6803F00403002B08D01D491C4B9B684C
:1034300023F4E0527B68DB6813438B607B681B6876
:1034400003F00803002B09D01549154B9B6823F4A2
:1034500060427B681B69DB0013438B6000F026F839
:1034600001460F4B9B6803F0F002F0233B613B6980
:1034700093FAA3F3FB60FB68B3FA83F322FA03F336
:10348000084AD35C21FA03F3074A13600020FDF7D2
:103490009DFF002318461837BD4680BD003C024002
:1034A0000038024000CE00086C05002080B48BB0CC
:1034B00000AF0023FB6100237B620023BB6100237C
:1034C0003B62364B9B6803F00C03042B06D0082BA1
:1034D00007D0002B58D1324B3B6258E0314B3B6256
:1034E00055E02E4B5B6803F03F03FB612B4B5B68A1
:1034F00003F48003002B17D02A4AFB69B2FBF3F2D6
:10350000264B596847F6C0730B4047F6C071F96007
:10351000F96891FAA1F1B960B968B1FA81F1CB40CB
:1035200003FB02F37B6216E01D4AFB69B2FBF3F278
:103530001A4B596847F6C0730B4047F6C071796162
:10354000796991FAA1F179607968B1FA81F1CB409A
:1035500003FB02F37B62114B5B6803F440324FF4D0
:1035600040333B613B6993FAA3F33B603B68B3FA9A
:1035700083F322FA03F301335B00BB617A6ABB6910
:10358000B2FBF3F33B6202E0054B3B6200BF3B6AD8
:1035900018462C37BD465DF8047B70470038024062
:1035A0000024F40000127A0080B400AF034B1B68C3
:1035B0001846BD465DF8047B704700BF6C050020CF
:1035C00080B582B000AF78607B68002B01D1012309
:1035D00055E07B6800229A627B6893F85130DBB239
:1035E000002B06D17B68002283F85020786805F014
:1035F0003FF97B68022283F851207B681B687A6858
:103600001268126822F040021A607B681B687A68B0
:1036100051687A68926811437A68D26811437A686F
:10362000126911437A68526911437A68926902F407
:10363000007211437A68D26911437A68126A1143A1
:103640007A68926A0A431A607B681B687A68926992
:10365000120C02F004017A68526A0A435A607B68CD
:103660001B687A681268D26922F40062DA617B68AA
:1036700000225A657B68012283F8512000231846F6
:103680000837BD4680BD00BF80B582B000AF78600E
:103690007B68002B01D101231AE07B68022283F8AA
:1036A00051207B681B687A681268126822F0400219
:1036B0001A60786805F048F97B6800225A657B68D3
:1036C000002283F851207B68002283F850200023D9
:1036D00018460837BD4680BD80B58AB002AFF86095
:1036E000B9603B601346FB800023BB610023FB777E
:1036F000FB6893F85030012B01D1022323E1FB68D2
:10370000012283F85020FDF78BFEB861FB6893F827
:103710005130DBB2012B02D00223FB770AE1BB68F8
:10372000002B02D0FB88002B02D10123FB7701E1A3
:10373000FB68032283F85120FB6800225A65FB686E
:10374000BA681A63FB68FA889A86FB68FA88DA8690
:10375000FB6800229A63FB6800229A87FB680022BC
:10376000DA87FB6800225A64FB6800221A64FB684F
:103770009B68B3F5004F07D1FB681B68FA681268B5
:10378000126842F480421A60FB681B681B6803F0F1
:103790004003002B07D1FB681B68FA6812681268A7
:1037A00042F040021A60FB68DB68B3F5006F47D156
:1037B000FB685B68002B04D0FB68DB8E9BB2012B9F
:1037C00038D1FB681B68BA681288DA60BB680233BC
:1037D000BB60FB68DB8E9BB2013B9AB2FB68DA866A
:1037E00028E0FB681B689B6803F00203002B0FD0E6
:1037F000FB681B68BA681288DA60BB680233BB607A
:10380000FB68DB8E9BB2013B9AB2FB68DA8611E063
:103810003B68002B0BD03B68B3F1FF3F0AD0FDF7AC
:10382000FFFD0246BB69D21A3B689A4202D30323CA
:10383000FB777FE0FB68DB8E9BB2002BD1D148E0A9
:10384000FB685B68002B04D0FB68DB8E9BB2012B0E
:103850003AD1FB681B680C33BA6812781A70BB68DF
:103860000133BB60FB68DB8E9BB2013B9AB2FB6805
:10387000DA8629E0FB681B689B6803F00203002BD3
:1038800010D0FB681B680C33BA6812781A70BB68DA
:103890000133BB60FB68DB8E9BB2013B9AB2FB68D5
:1038A000DA8611E03B68002B0BD03B68B3F1FF3F99
:1038B0000AD0FDF7B5FD0246BB69D21A3B689A42B1
:1038C00002D30323FB7735E0FB68DB8E9BB2002B32
:1038D000D0D1BB6900933B6801220221F86800F057
:1038E000E5F90346002B02D00323FB7722E0BA69F7
:1038F0003968F86800F044FA0346002B05D001232C
:10390000FB77FB6820225A6514E0FB689B68002B5C
:103910000AD100237B61FB681B68DB687B61FB6865
:103920001B689B687B617B69FB685B6D002B01D02A
:103930000123FB77FB68012283F85120FB680022FA
:1039400083F85020FB7F18462037BD4680BD00BF5E
:1039500080B58CB002AFF860B9607A607B800023DC
:10396000FB610023BB6100237B6101237B62002399
:1039700087F82330FB6893F85030012B01D10223E4
:1039800081E1FB68012283F85020FDF749FD786151
:10399000FB6893F85130DBB2FB61FB685B68BB618D
:1039A000FB69012B0ED0BB69B3F5827F06D1FB68A2
:1039B0009B68002B02D1FB69042B03D0022387F8FC
:1039C000233056E1BB68002B05D07B68002B02D06A
:1039D0007B88002B03D1012387F8233049E1FB6862
:1039E00093F85130DBB2012B03D1FB68052283F839
:1039F0005120FB6800225A65FB687A689A63FB686D
:103A00007A88DA87FB687A889A87FB68BA681A63CB
:103A1000FB687A88DA86FB687A889A86FB680022D7
:103A20001A64FB6800225A64FB681B681B6803F079
:103A30004003002B07D1FB681B68FA681268126804
:103A400042F040021A60FB68DB68B3F5006F71D189
:103A5000FB685B68002B04D0FB68DB8E9BB2012BFC
:103A60005DD1FB681B68BA681288DA60BB680233F4
:103A7000BB60FB68DB8E9BB2013B9AB2FB68DA86C7
:103A80004DE07B6A002B1CD0FB68DB8E9BB2002BC9
:103A900017D0FB681B689B6803F00203002B10D053
:103AA000FB681B68BA681288DA60BB680233BB60C7
:103AB000FB68DB8E9BB2013B9AB2FB68DA8600237F
:103AC0007B62FB68DB8F9BB2002B18D0FB681B6806
:103AD0009B6803F00103002B11D0FB681B68DB68B7
:103AE0009AB27B681A807B6802337B60FB68DB8F4D
:103AF0009BB2013B9AB2FB68DA8701237B623B6B86
:103B0000B3F1FF3F0BD0FDF78BFC02467B69D21A65
:103B10003B6B9A4203D3032387F82330A9E0FB6869
:103B2000DB8E9BB2002BACD1FB68DB8F9BB2002BF2
:103B3000A7D171E0FB685B68002B04D0FB68DB8ECB
:103B40009BB2012B5ED1FB681B680C33BA681278FC
:103B50001A70BB680133BB60FB68DB8E9BB2013B14
:103B60009AB2FB68DA864DE07B6A002B1DD0FB68B9
:103B7000DB8E9BB2002B18D0FB681B689B6803F0A0
:103B80000203002B11D0FB681B6803F10C02BB6819
:103B9000591CB9601B781370FB68DB8E9BB2013B2C
:103BA0009AB2FB68DA8600237B62FB68DB8F9BB2EC
:103BB000002B17D0FB681B689B6803F00103002BE8
:103BC00010D07B685A1C7A60FA681268D268D2B248
:103BD0001A70FB68DB8F9BB2013B9AB2FB68DA87F5
:103BE00001237B623B6BB3F1FF3F0BD0FDF718FC69
:103BF00002467B69D21A3B6B9A4203D3032387F8B0
:103C0000233036E0FB68DB8E9BB2002BACD1FB6827
:103C1000DB8F9BB2002BA7D17B6900933B6B01220A
:103C20000221F86800F042F80346002B03D003237A
:103C300087F823301DE07A69396BF86800F0A0F846
:103C40000346002B06D0012387F82330FB6820228F
:103C50005A650EE0FB689B68002B0AD100233B618C
:103C6000FB681B68DB683B61FB681B689B683B610A
:103C70003B69FB68012283F85120FB68002283F82E
:103C8000502097F8233018462837BD4680BD00BF26
:103C900080B483B000AF78607B6893F85130DBB2BA
:103CA00018460C37BD465DF8047B704780B584B07C
:103CB00000AFF860B9607A603B604DE03B68B3F1FB
:103CC000FF3F49D03B68002B07D0FDF7A9FB024618
:103CD000BB69D21A3B689A423ED3FB681B68FA68FC
:103CE0001268526822F0E0025A60FB685B68B3F524
:103CF000827F11D1FB689B68B3F5004F04D0FB684D
:103D00009B68B3F5806F07D1FB681B68FA6812687F
:103D1000126822F040021A60FB689B6AB3F5005FEC
:103D200010D1FB681A68FB681B6819684DF6FF73B1
:103D30000B401360FB681B68FA681268126842F453
:103D400000521A60FB68012283F85120FB680022B0
:103D500083F8502003230EE0FB681B689A68BB6859
:103D60001A40BB689A4201D1012200E000227B6820
:103D70009A42A3D1002318461037BD4680BD00BF2C
:103D800080B586B002AFF860B9607A607B68009356
:103D9000BB6800228021F868FFF788FF0346002BEC
:103DA00007D0FB685B6D43F02002FB685A65032374
:103DB00000E0002318461037BD4680BD80B582B0B4
:103DC00000AF78607B68002B01D101231DE07B6888
:103DD00093F83930DBB2002B06D17B68002283F8E0
:103DE0003820786804F0E8FD7B68022283F83920E7
:103DF0007B681A687B6804331946104600F002F9A4
:103E00007B68012283F83920002318460837BD4615
:103E100080BD00BF80B483B000AF78607B680222B1
:103E200083F839207B681B687A681268126842F050
:103E300001021A607B68012283F8392000231846AA
:103E40000C37BD465DF8047B704700BF80B584B079
:103E500000AF786039600023FB607B6893F83830EE
:103E6000012B01D10223C8E07B68012283F83820AE
:103E70007B68022283F839207B681B689B68FB60A3
:103E8000FB6823F07703FB60FB6823F47F43FB6050
:103E90007B681B68FA689A603B681B68402B77D088
:103EA000402B0ED8102B00F08A80102B02D8002B4C
:103EB0007ED099E0202B00F08980302B00F08D809F
:103EC00092E0702B16D0702B04D8502B40D0602B72
:103ED0004ED089E0B3F5805F03D0B3F5005F24D006
:103EE00082E07B681B687A681268926822F0070299
:103EF0009A6079E07B6818683B6899683B685A6803
:103F00003B68DB6800F0B0F97B681B689B68FB606E
:103F1000FB6823F07703FB60FB6843F07703FB60EB
:103F20007B681B68FA689A605EE07B6818683B688B
:103F300099683B685A683B68DB6800F095F97B68D4
:103F40001B687A681268926842F480429A604BE07B
:103F50007B6818683B6859683B68DB681A4600F064
:103F6000FBF87B681B685021184600F05DF93BE0C8
:103F70007B6818683B6859683B68DB681A4600F044
:103F80001FF97B681B686021184600F04DF92BE093
:103F90007B6818683B6859683B68DB681A4600F024
:103FA000DBF87B681B684021184600F03DF91BE0F8
:103FB0007B681B680021184600F036F914E07B6826
:103FC0001B681021184600F02FF90DE07B681B6874
:103FD0002021184600F028F906E07B681B68302194
:103FE000184600F021F900BF7B68012283F83920D0
:103FF0007B68002283F83820002318461037BD461E
:1040000080BD00BF80B485B000AF78603960002308
:10401000FB607B681B68FB607B68444A934213D05B
:104020007B68B3F1804F0FD07B68414A93420BD03D
:104030007B68404A934207D07B683F4A934203D053
:104040007B683E4A934201D1012300E00023002B0C
:1040500008D0FB6823F07003FB603B685B68FA687C
:104060001343FB607B68314A93422BD07B68B3F1EA
:10407000804F27D07B682E4A934223D07B682D4AFD
:1040800093421FD07B682C4A93421BD07B682B4AFB
:10409000934217D07B682A4A934213D07B68294AFF
:1040A00093420FD07B68284A93420BD07B68274A03
:1040B000934207D07B68264A934203D07B68254A07
:1040C000934201D1012300E00023002B08D0FB68BC
:1040D00023F44073FB603B68DB68FA681343FB60C2
:1040E0007B68FA681A603B689A687B68DA623B68AA
:1040F0001A687B689A627B680C4A934203D07B689B
:104100000E4A934201D1012300E00023002B03D08B
:104110003B681A697B681A637B6801225A6100BF99
:104120001437BD465DF8047B704700BF00000140B6
:104130000004004000080040000C00400004014062
:104140000040014000440140004801400018004088
:10415000001C00400020004080B487B000AFF86031
:10416000B9607A6000237B6100233B61FB681B6AB6
:104170003B61FB681B6A23F00102FB681A62FB6863
:104180009B697B617B6923F0F0037B617B681B018A
:104190007A6913437B613B6923F00A033B613A6907
:1041A000BB6813433B61FB687A699A61FB683A69B3
:1041B0001A6200BF1C37BD465DF8047B704700BF24
:1041C00080B487B000AFF860B9607A6000237B618B
:1041D00000233B61FB681B6A23F01002FB681A6234
:1041E000FB689B697B61FB681B6A3B617B6923F40D
:1041F00070437B617B681B037A6913437B613B6976
:1042000023F0A0033B61BB681B013A6913433B6188
:10421000FB687A699A61FB683A691A6200BF1C37C9
:10422000BD465DF8047B704780B485B000AF786010
:104230000B467B800023FB607B689B68FB60FB6810
:1042400023F07003FB607B8843F007039BB21A46A0
:10425000FB681343FB607B68FA689A6000BF143701
:10426000BD465DF8047B704780B487B000AFF8604E
:10427000B9607A603B6000237B61FB689B687B616F
:104280007B6923F47F437B613B681A027B681A4396
:10429000BB6813437A6913437B61FB687A699A6050
:1042A00000BF1C37BD465DF8047B704784B080B505
:1042B00082B000AF786007F1140080E80E00BB6A9E
:1042C000012B20D17B689B6B23F480327B689A633F
:1042D0007B68DB6823F4840323F040037A68D360AF
:1042E0007B68DB6823F440127B68DA607B6C012B0F
:1042F00005D17B68DB6843F480127B68DA607868FC
:1043000001F0CAF90CE07B68DB6843F040027B688F
:10431000DA60786801F0C0F97B684FF480329A6304
:104320003B6A012B0BD17B689B6843F006027B68DC
:104330009A607B689B6843F020027B689A60002348
:1043400018460837BD46BDE8804004B0704700BF3E
:1043500080B483B000AF78607B689B6843F0010253
:104360007B689A60002318460C37BD465DF8047BD5
:10437000704700BF80B483B000AF78607B689B68F3
:1043800023F001027B689A60002318460C37BD4673
:104390005DF8047B704700BF80B582B000AF7860E5
:1043A0000B46FB707B68DB6823F0C0427B68DA60F9
:1043B000FB78012B06D17B68DB6843F000527B68F9
:1043C000DA6008E0FB78002B05D17B68DB6843F0FE
:1043D00080427B68DA603220FDF72EF80023184611
:1043E0000837BD4680BD00BF84B080B584B000AF43
:1043F000786007F11C0080E80E000023FB607B6CF6
:10440000002B06D17B689B6B43F400127B689A6398
:1044100005E07B689B6B43F400227B689A637B68B2
:1044200003F560631A46002313607B6803F500639D
:104430001A467B6803F500631B6813603B6B012B16
:104440000CD17B6A002B04D10021786800F040F980
:1044500008E00121786800F03BF903E00321786867
:1044600000F036F91021786800F0EAF8786800F07A
:104470000DF97B6803F500631A46002313617B681E
:1044800003F500631A46002353617B6803F500635C
:104490001A464FF0FF3393617B6803F500631A46B9
:1044A0000023D3610023FB6031E0FB685A017B6885
:1044B000134403F510631B68002B0ADAFB685A01EA
:1044C0007B68134403F510631A464FF09043136062
:1044D00008E0FB685A017B68134403F510631A4631
:1044E00000231360FB685A017B68134403F51063D3
:1044F0001A4600231361FB685A017B68134403F5D5
:1045000010631A46FF239360FB680133FB60FA696E
:10451000FB689A42C9D80023FB6031E0FB685A016E
:104520007B68134403F530631B68002B0ADAFB68D1
:104530005A017B68134403F530631A464FF09043E9
:10454000136008E0FB685A017B68134403F530638D
:104550001A4600231360FB685A017B68134403F575
:1045600030631A4600231361FB685A017B681344C9
:1045700003F530631A46FF239360FB680133FB6049
:10458000FA69FB689A42C9D87B6803F500631A464A
:104590007B6803F500631B6923F480731361BB6AB6
:1045A000012B17D17B6803F500631A46224B136376
:1045B0007B6803F500631A467B6803F500631B6B99
:1045C00043F4803343F0030313637B6803F5006314
:1045D0001B6BFB607B6800229A617B686FF08042F6
:1045E0005A61BB6A002B05D17B689B6943F01002BE
:1045F0007B689A617B689A69104B13437A68936170
:104600007B6B002B05D07B689B6943F008027B68BD
:104610009A617B6C012B07D17B689B6943F08043D7
:1046200043F004037A689361002318461037BD46AF
:10463000BDE8804004B070470001800000383C8035
:1046400080B485B000AF786039600023FB603B68C0
:104650009B0143F020027B681A61FB680133FB6019
:10466000FB68094A934201D9032306E07B681B6972
:1046700003F02003002BF0D1002318461437BD4669
:104680005DF8047B704700BF400D030080B485B027
:1046900000AF78600023FB607B6810221A61FB6822
:1046A0000133FB60FB68094A934201D9032306E00A
:1046B0007B681B6903F01003002BF0D10023184620
:1046C0001437BD465DF8047B704700BF400D030002
:1046D00080B483B000AF78600B46FB707B6803F555
:1046E000006319467B6803F500631A68FB7813437F
:1046F0000B60002318460C37BD465DF8047B7047FD
:1047000080B485B000AF78600023FB737B6803F54D
:1047100000639B6803F00603002B02D10023FB73A8
:104720001CE07B6803F500639B6803F00603022B23
:1047300007D07B6803F500639B6803F00603062B34
:1047400002D10323FB7309E07B6803F500639B68D8
:1047500003F00603042B01D10223FB73FB7B1846F5
:104760001437BD465DF8047B704700BF80B483B04A
:1047700000AF786039603B685B78012B3ED17B6885
:1047800003F5006319467B6803F50063DA693B684B
:104790001B781846012383409BB21343CB613B68CF
:1047A0001B785A017B68134403F510631B6803F4FC
:1047B0000043002B5CD13B681B785A017B68134493
:1047C00003F5106318463B681B785A017B68134455
:1047D00003F510631A683B689B68C3F30A033968E2
:1047E000C97889040B433968097889050B43134359
:1047F00043F0805343F40043036039E07B6803F5E2
:10480000006319467B6803F50063DA693B681B782F
:104810001846012383401B041343CB613B681B787C
:104820005A017B68134403F530631B6803F40043AB
:10483000002B1DD13B681B785A017B68134403F59C
:10484000306318463B681B785A017B68134403F5B4
:1048500030631A683B689B68C3F30A033968C978F8
:1048600089040B43134343F0805343F40043036034
:10487000002318460C37BD465DF8047B704700BF27
:1048800080B584B000AF786039600023FB603B687E
:104890005B78012B53D13B681B785A017B6813442A
:1048A00003F5106319463B681B785A017B68134473
:1048B00003F510631B6823F400430B603B681B780F
:1048C0005A017B68134403F510631A464FF00063E6
:1048D00013603B681B785A017B68134403F510632F
:1048E0001A464FF080431360FB680133FB60FB689E
:1048F000424A934201D903237CE03B681B785A016A
:104900007B68134403F510639B6803F08043002B1E
:10491000EAD110217868FFF793FE7B6803F5006306
:1049200019467B6803F50063DA693B681B78184613
:10493000012383409BB2DB431340CB6159E03B68CA
:104940001B785A017B68134403F5306319463B68B2
:104950001B785A017B68134403F530631B6823F40A
:1049600000430B603B681B785A017B68134403F5D6
:1049700030631A464FF0006313603B681B785A019E
:104980007B68134403F530631A464FF0804313608D
:10499000FB680133FB60FB68184A934201D903238B
:1049A00028E03B681B785A017B68134403F53063A9
:1049B0009B6803F01003002BEAD17B6803F50063CA
:1049C0001A467B6803F500635B6843F480635360B9
:1049D0007B6803F5006319467B6803F50063DA69B9
:1049E0003B681B781846012383401B04DB431340BC
:1049F000CB61002318461037BD4680BD400D030033
:104A000080B588B002AFF860B9601346FB7100232F
:104A1000FB82BB685B78012B40F04681BB685B6919
:104A2000002B3BD1BB681B785A01FB68134403F58C
:104A300010631946BB681B785A01FB68134403F5E1
:104A400010631B6923F0FF5323F4C0130B61BB6891
:104A50001B785A01FB68134403F510631946BB68C1
:104A60001B785A01FB68134403F510631B6943F478
:104A700000230B61BB681B785A01FB68134403F5E4
:104A800010631946BB681B785A01FB68134403F591
:104A900010631B69DB0CDB040B6186E0BB681B78D1
:104AA0005A01FB68134403F510631946BB681B7871
:104AB0005A01FB68134403F510631B69DB0CDB042C
:104AC0000B61BB681B785A01FB68134403F5106344
:104AD0001946BB681B785A01FB68134403F5106341
:104AE0001B6923F0FF5323F4C0130B61BB681B78D1
:104AF0005A01FB68134403F510631846BB681B7822
:104B00005A01FB68134403F510631A69BB685969BD
:104B1000BB689B680B44591EBB689B68B1FBF3F3F1
:104B2000D9048C4B0B4013430361BB681B785A01BB
:104B3000FB68134403F510631946BB681B785A01E0
:104B4000FB68134403F510631A69BB685B69C3F320
:104B5000120313430B61BB68DB78012B25D1BB68C3
:104B60001B785A01FB68134403F510631946BB68B0
:104B70001B785A01FB68134403F510631B6923F08B
:104B8000C0430B61BB681B785A01FB68134403F5F3
:104B900010631946BB681B785A01FB68134403F580
:104BA00010631B6943F000530B61FB79012B0BD1A0
:104BB000BB681B785A01FB68134403F510631A465F
:104BC000BB681B69536116E0BB68DB78012B12D010
:104BD000BB685B69002B0ED0FB6803F500631946C8
:104BE000FB6803F500635A6BBB681B78184601230A
:104BF000834013434B63BB68DB78012B2ED1FB68EA
:104C000003F500639B6803F48073002B13D1BB682A
:104C10001B785A01FB68134403F510631946BB68FF
:104C20001B785A01FB68134403F510631B6843F0BB
:104C300000530B6012E0BB681B785A01FB681344F9
:104C400003F510631946BB681B785A01FB681344CF
:104C500003F510631B6843F080530B60BB681B783F
:104C60005A01FB68134403F510631946BB681B78AF
:104C70005A01FB68134403F510631B6843F00443B7
:104C80000B60BB68DB78012B40F0F580BB68D9680E
:104C9000BB681A78BB685B6998B2FB7900930346DE
:104CA000F86800F04FFAE6E0BB681B785A01FB6831
:104CB000134403F530631946BB681B785A01FB683F
:104CC000134403F530631B69DB0CDB040B61BB6829
:104CD0001B785A01FB68134403F530631946BB681F
:104CE0001B785A01FB68134403F530631B6923F0FA
:104CF000FF5323F4C0130B61BB685B69002B2BD1FE
:104D0000BB681B785A01FB68134403F530631946EE
:104D1000BB681B785A01FB68134403F530631A69BA
:104D2000BB689B68C3F3120313430B61BB681B781A
:104D30005A01FB68134403F530631946BB681B78BE
:104D40005A01FB68134403F530631B6943F40023E5
:104D50000B613CE00000F81FBB685A69BB689B68A8
:104D600013445A1EBB689B68B2FBF3F3FB82BB681B
:104D70001B785A01FB68134403F530631946BB687E
:104D80001B785A01FB68134403F530631A69FB8AE8
:104D9000DB0418463A4B034013430B61BB681B7896
:104DA0005A01FB68134403F530631846BB681B784F
:104DB0005A01FB68134403F530631A69BB689B68AA
:104DC000F98A01FB03F3C3F3120313430361FB7975
:104DD000012B0AD1BB681B785A01FB68134403F509
:104DE00030631A46BB68DB685361BB68DB78012B14
:104DF0002ED1FB6803F500639B6803F48073002BDE
:104E000013D1BB681B785A01FB68134403F5306368
:104E10001946BB681B785A01FB68134403F53063DD
:104E20001B6843F000530B6012E0BB681B785A010B
:104E3000FB68134403F530631946BB681B785A01BD
:104E4000FB68134403F530631B6843F080530B6029
:104E5000BB681B785A01FB68134403F5306319469D
:104E6000BB681B785A01FB68134403F530631B6869
:104E700043F004430B60002318461837BD4680BD3D
:104E80000000F81F80B485B000AFF860B960134629
:104E9000FB71BB685B78012B40F0D280BB685B691B
:104EA000002B3BD1BB681B785A01FB68134403F508
:104EB00010631946BB681B785A01FB68134403F55D
:104EC00010631B6923F0FF5323F4C0130B61BB680D
:104ED0001B785A01FB68134403F510631946BB683D
:104EE0001B785A01FB68134403F510631B6943F4F4
:104EF00000230B61BB681B785A01FB68134403F560
:104F000010631946BB681B785A01FB68134403F50C
:104F100010631B69DB0CDB040B615AE0BB681B7878
:104F20005A01FB68134403F510631946BB681B78EC
:104F30005A01FB68134403F510631B69DB0CDB04A7
:104F40000B61BB681B785A01FB68134403F51063BF
:104F50001946BB681B785A01FB68134403F51063BC
:104F60001B6923F0FF5323F4C0130B61BB685A691C
:104F7000BB689B689A4203D9BB689A68BB685A6150
:104F8000BB681B785A01FB68134403F5106319468C
:104F9000BB681B785A01FB68134403F510631B6957
:104FA00043F400230B61BB681B785A01FB68134470
:104FB00003F510631946BB681B785A01FB6813445C
:104FC00003F510631A69BB685B69C3F312031343EB
:104FD0000B61BB681B785A01FB68134403F510632F
:104FE0001946BB681B785A01FB68134403F510632C
:104FF0001B6843F004430B60FB79012B0BD1BB68AA
:105000001B785A01FB68134403F510631A46BB680A
:105010001B6953618EE0BB685B69002B00F08A80DE
:10502000FB6803F500631946FB6803F500635A6BE0
:10503000BB681B7818460123834013434B6379E018
:10504000BB681B785A01FB68134403F530631946AB
:10505000BB681B785A01FB68134403F530631B6976
:10506000DB0CDB040B61BB681B785A01FB68134443
:1050700003F530631946BB681B785A01FB6813447B
:1050800003F530631B6923F0FF5323F4C0130B6156
:10509000BB685B69002B03D0BB689A68BB685A6128
:1050A000BB681B785A01FB68134403F5306319464B
:1050B000BB681B785A01FB68134403F530631B6916
:1050C00043F400230B61BB681B785A01FB6813444F
:1050D00003F530631946BB681B785A01FB6813441B
:1050E00003F530631A69BB689B68C3F3120313436B
:1050F0000B61FB79012B0AD1BB681B785A01FB6855
:10510000134403F530631A46BB68DB685361BB6820
:105110001B785A01FB68134403F530631946BB68DA
:105120001B785A01FB68134403F530631B6843F096
:1051300004430B60002318461437BD465DF8047B1A
:10514000704700BF80B487B000AFF860B960114607
:105150001A460B46FB711346BB8000233B610023BC
:105160007B6197F82030002B1AD1BB8803339B0852
:105170003B6100237B610FE0FB791A03FB6813445A
:1051800003F580531A46BB681B6813607B690133C3
:105190007B61BB680433BB607A693B699A42EBD39D
:1051A000002318461C37BD465DF8047B704700BFDE
:1051B00080B487B000AFF860B9601346FB8000236D
:1051C0007B61FB8803339B083B6100237B610BE021
:1051D000FB6803F580531A68BB681A607B6901336A
:1051E0007B61BB680433BB607A693B699A42EFD349
:1051F000BB6818461C37BD465DF8047B704700BF8E
:1052000080B483B000AF786039603B685B78012B75
:1052100030D13B681B785A017B68134403F5106357
:105220001B68002B12DB3B681B785A017B68134418
:1052300003F5106319463B681B785A017B681344D9
:1052400003F510631B6823F080430B603B681B78F9
:105250005A017B68134403F5106319463B681B78B9
:105260005A017B68134403F510631B6843F4001371
:105270000B602FE03B681B785A017B68134403F5F1
:1052800030631B68002B12DB3B681B785A017B687C
:10529000134403F5306319463B681B785A017B6859
:1052A000134403F530631B6823F080430B603B68B5
:1052B0001B785A017B68134403F5306319463B6839
:1052C0001B785A017B68134403F530631B6843F471
:1052D00000130B60002318460C37BD465DF8047BB5
:1052E000704700BF80B483B000AF786039603B681E
:1052F0005B78012B2ED13B681B785A017B681344E5
:1053000003F5106319463B681B785A017B68134408
:1053100003F510631B6823F400130B603B68DB7814
:10532000032B03D03B68DB78022B41D13B681B7811
:105330005A017B68134403F5106319463B681B78D8
:105340005A017B68134403F510631B6843F08053D4
:105350000B602DE03B681B785A017B68134403F512
:10536000306319463B681B785A017B68134403F588
:1053700030631B6823F400130B603B68DB78032B5E
:1053800003D03B68DB78022B12D13B681B785A01B3
:105390007B68134403F5306319463B681B785A0158
:1053A0007B68134403F530631B6843F080530B6044
:1053B000002318460C37BD465DF8047B704700BFDC
:1053C00080B483B000AF78600B46FB707B6803F558
:1053D00000631A467B6803F500631B6823F4FE63D1
:1053E00013607B6803F5006319467B6803F500636F
:1053F0001A68FB781B0103F4FE6313430B60002360
:1054000018460C37BD465DF8047B704780B582B006
:1054100000AF78607B6803F500631A467B6803F58C
:1054200000635B6823F0020353600320FCF704F879
:10543000002318460837BD4680BD00BF80B582B046
:1054400000AF78607B6803F500631A467B6803F55C
:1054500000635B6843F0020353600320FBF7ECFF3B
:10546000002318460837BD4680BD00BF80B485B014
:1054700000AF78600023FB607B685B69FB607B6842
:105480009B69FA681340FB60FB6818461437BD46F9
:105490005DF8047B704700BF80B485B000AF7860D2
:1054A0007B6803F500639B69FB607B6803F5006321
:1054B000DB69FA681340FB60FB681B0C1846143765
:1054C000BD465DF8047B704780B485B000AF78605E
:1054D0007B6803F500639B69FB607B6803F50063F1
:1054E000DB69FA681340FB60FB689BB2184614370F
:1054F000BD465DF8047B704780B485B000AF78602E
:105500000B46FB70FB785A017B68134403F530634C
:105510009B68FB607B6803F500635B69FA68134076
:10552000FB60FB6818461437BD465DF8047B704786
:1055300080B487B000AF78600B46FB707B6803F5E2
:1055400000631B697B617B6803F500635B6B3B61F8
:10555000FB783A6922FA03F3DB01DBB27A69134381
:105560007B61FB785A017B68134403F510639A68EA
:105570007B691340FB60FB6818461C37BD465DF82D
:10558000047B704780B483B000AF78607B685B6950
:1055900003F0010318460C37BD465DF8047B7047E5
:1055A00080B483B000AF78607B6803F510631A465F
:1055B0007B6803F510631B6823F4FF6323F0070384
:1055C00013607B6803F500639B6803F00603042BFC
:1055D0000AD17B6803F510631A467B6803F51063F4
:1055E0001B6843F0030313607B6803F500631A46EE
:1055F0007B6803F500635B6843F4807353600023AA
:1056000018460C37BD465DF8047B704780B485B002
:1056100000AFF8600B467A60FB72FB6803F53063FD
:105620001A4600231361FB6803F530631A46FB68D2
:1056300003F530631B6943F400231361FB6803F532
:1056400030631A46FB6803F530631B6943F01803A7
:105650001361FB6803F530631A46FB6803F530639A
:105660001B6943F0C0431361FB7A012B0CD1FB682B
:1056700003F530631A467B685361FB6803F53063BA
:105680001A464FF080231360002318461437BD4696
:105690005DF8047B704700BF80B485B000AF7860D0
:1056A0000023FB60FB680133FB60FB68134A9342F5
:1056B00001D903231BE07B681B69002BF2DA00236E
:1056C000FB607B681B6943F001027B681A61FB6821
:1056D0000133FB60FB68094A934201D9032306E0CA
:1056E0007B681B6903F00103002BF0D100231846EF
:1056F0001437BD465DF8047B704700BF400D0300C2
:1057000080B584B000AF78600B46FB700023FB735C
:105710007B681B7C002B0ED14FF400730222812189
:10572000786803F045FD4FF4007302220121786888
:1057300003F03EFD0BE0402302228121786803F054
:1057400037FD402302220121786803F031FD082350
:1057500003228221786803F02BFD4FF4077004F0D8
:10576000E3F803461A467B68C3F818227B68D3F82F
:105770001832002B02D10123FB7326E07B68D3F89B
:105780001832BB607B68D3F81C321B689847BB6833
:105790000022C3F81422BB680022C3F818227B68D9
:1057A0001B7C002B09D1BB68D3F804224FF4007393
:1057B0000121786803F0AAFD07E0BB68D3F8042252
:1057C00040230121786803F0A1FDFB7B18461037C8
:1057D000BD4680BD80B584B000AF78600B46FB70DD
:1057E0000023FB738121786803F0FCFC01217868B9
:1057F00003F0F8FC8221786803F0F4FC7B68D3F8AE
:105800001832002B0ED07B68D3F81C325B689847A7
:105810007B68D3F81832184604F08EF87B680022B3
:10582000C3F81822FB7B18461037BD4680BD00BF69
:1058300080B584B000AF786039607B68D3F81832E7
:10584000FB603B681B7803F06003002B3AD0202BF1
:1058500000D043E03B68DB88002B29D03B681B78F5
:105860005BB2002B11DA7B68D3F81C329B683A6874
:105870005078F9683A68D2889847F9683B68DB88BD
:105880001A46786801F068F829E03B685A78FB68A6
:1058900083F800223B68DB88DAB2FB6883F80122D8
:1058A000F9683B68DB881A46786801F083F816E0EF
:1058B0007B68D3F81C329B683A68507800223968BC
:1058C00098470CE03B685B780A2B01D00B2B05E076
:1058D00001220549786801F03FF800BF00BF0023AE
:1058E00018461037BD4680BD2C0A002080B485B014
:1058F00000AF78600B46FB707B68D3F81832FB6012
:105900007B68D3F81832002B05D0FB680022C3F85F
:105910001422002300E0022318461437BD465DF828
:10592000047B704780B584B000AF78600B46FB7095
:105930007B68D3F81832FB60FB781946786803F06F
:10594000FDFC0246FB68C3F80C227B68D3F81832D2
:10595000002B0DD07B68D3F81C32DB68FA68D2F8D4
:105960000402FA6802F5037211469847002300E02A
:10597000022318461037BD4680BD00BF80B584B0F5
:1059800000AF78607B68D3F81832FB607B68D3F88F
:105990001C32002B15D0FB6893F80032FF2B10D07F
:1059A0007B68D3F81C329B68FA6892F80002F968A9
:1059B000FA6892F8012292B29847FB68FF2283F8B6
:1059C0000022002318461037BD4680BD80B483B046
:1059D00000AF78607B6843221A80034B18460C376F
:1059E000BD465DF8047B7047B404002080B483B0EA
:1059F00000AF78607B6843221A80034B18460C374F
:105A0000BD465DF8047B70477004002080B483B00D
:105A100000AF78607B6843221A80034B18460C372E
:105A2000BD465DF8047B7047F804002080B483B065
:105A300000AF78607B680A221A80034B18460C3747
:105A4000BD465DF8047B70472C04002080B485B00F
:105A500000AF786039600223FB733B68002B05D0F0
:105A60007B683A68C3F81C220023FB73FB7B184653
:105A70001437BD465DF8047B704700BF80B487B023
:105A800000AFF860B9601346FB80FB68D3F81832AA
:105A90007B617B69BA68C3F80822FA887B69C3F81E
:105AA0001022002318461C37BD465DF8047B704762
:105AB00080B485B000AF786039607B68D3F8183265
:105AC000FB60FB683A68C3F80422002318461437C9
:105AD000BD465DF8047B704780B584B000AF786048
